:020000040000FA
:10000000008B0010F9000000010100000301000056
:1000100005010000070100000901000000000000C8
:100020000000000000000000000000000B010000C4
:100030000D0100000000000077DB00002502000039
:100040001301000013010000130100001301000060
:10005000130100008D73000013010000E373000022
:100060001301000013010000130100001301000040
:100070001301000000000000130100001301000044
:100080001301000013010000130100001301000020
:100090001301000013010000130100001301000010
:1000A0001301000013010000F76F000013010000AE
:1000B000FB0F000065230000130100001301000086
:1000C00013010000130100001301000013010000E0
:1000D00013010000130100001301000013010000D0
:1000E00013010000DFF80CD027F074FD0048004732
:1000F0007F020000008B001006488047064800473A
:10010000FEE7FEE7FEE7FEE7FEE7FEE7FEE7FEE7C7
:10011000FEE7FEE7FD040000E50000003B4B01F0B8
:100120001F02002806D001280DD0022814D0032871
:100130001DD0FEE7D3F8040120F01F000243C3F8EE
:10014000042100F0DDB8D3F8A80120F01F0002431D
:10015000C3F8A82100F0D4B8D3F8000120F00102C0
:1001600001F001001043C3F8000100F0C9B803F525
:1001700084731868186840EA0200186000F0C0B87C
:10018000002806D0012807D0022808D0032809D06B
:10019000FEE71F48006870471E48006870471E4809
:1001A000006870471D4800687047184A012906D04A
:1001B000002903D152F8C41F81431160704752F8DF
:1001C000C41F01431160704710490020C03108600E
:1001D00030BF70471249042008600C490020C0312C
:1001E000086030BF70470E490420086007490120AD
:1001F000C031086030BF70470949042008600349D6
:100200000320C031086030BF7047000000C00F40BD
:100210000000001004000010080000100C00001086
:1002200010ED00E010B50DF081FC1E4A1178491C5C
:1002300011700DF07FFC0EF04AF81B490868401C55
:100240000860BDE810400DF0B9BF10B50020FFF701
:1002500097FF4FF47A71B0FBF1F0401EB0F1807F50
:100260000CD220F07F414FF0E020491E41610F4A3F
:10027000F8211170002181610721016110BD012168
:10028000C803FFF792FF07F079F809A027F0F0FC08
:1002900006F084FF07F0C0F900F01CFB04F05BFFE0
:1002A000FEE70000DA0200102003001023ED00E05A
:1002B0002D2D2D2D2D2D2D0A000000000B4800683E
:1002C00070470A490A6810440A68821A002AFBDC4F
:1002D00070470649002008607047704770477047B4
:1002E0007047002070477047704770472003001028
:1002F000002808BF70471CF003BC7047FFFFFFFFDA
:10030000F0B5A04DD5F804010022C1059E48002992
:1003100052DBD5F80C119D4BC90707D0D5F8A011B9
:10032000490626D40260426082609EE0D5F804113E
:10033000C9061AD0D5F8041101F01F01B3FBF1F181
:100340000160D5F8A841E40611D0D5F8A84104F021
:100350001F04B3FBF4F34360D5F8003103F001034D
:100360005B1CB1FBF3F181607FE00021E8E7002333
:10037000F1E7D5F80411C9061AD0D5F8041101F037
:100380001F01B3FBF1F10160D5F8A841E40611D0DB
:10039000D5F8A84104F01F04B3FBF4F34360D5F88B
:1003A000003103F001035B1CB1FBF3F181605CE001
:1003B0000021E8E70023F1E7D5F88810C90503D448
:1003C00002604260826050E0D5F80C11C90707D086
:1003D000D5F8A011490628D402604260826044E04A
:1003E00055F8881F01F01F035B1CE96F01F01F0126
:1003F000D5F8204104F01F04AE6F883D06F00106D9
:10040000761C71B1614F5F43B7FBF1F1016054B1EC
:100410005E4F7B43B3FBF4F34360B1FBF6F18160C5
:1004200023E00021F2E70023F6E755F8881F01F0EA
:100430001F035B1CE96F01F01F01D5F8204104F098
:100440001F04AE6F883D06F00106761CE1B14F4FE8
:100450005F43B7FBF1F10160C4B14C4F7B43B3FB89
:10046000F4F34360B1FBF6F18160D5F80811C905DA
:1004700028D5D5F8081111F01F0109D0042909D099
:10048000062907D0C260F0BD0021E4E70023E8E7B9
:10049000C260F0BD903555F8081C01F01F01491CE1
:1004A000AA6F02F01F02EB6FDB0705D0374B5943F1
:1004B000B1FBF2F1C160F0BD344B5943B1FBF2F135
:1004C000C160F0BDD5F80811890515D5D5F80C1116
:1004D000C90708D0D5F8A8102C4A01F01F01491C03
:1004E0005143C160F0BDD5F88810284A01F01F01C2
:1004F000491C5143C160F0BDC260F0BD10B4214839
:100500002121C0F8A011D0F8A0114906FBD5012285
:100510008030C0F88C20092141600260AA24C460A8
:100520005523C3608038D0F888104905FBD52321B6
:10053000A03041600260C460C360A038D0F8A81049
:100540004905FBD58C3040F20111816740F2012151
:10055000C16742670221C0F81C110D4981634FF445
:100560008071C0F83C11D0F8241141F00301C0F8AB
:10057000241145F23A0140F88C1C0649002008601D
:1005800010BCBDE600C00F4000000010001BB7000B
:10059000DE87280408ED00E001460020062905D288
:1005A000DFE801F00305080B0E11C8487047C74883
:1005B00020307047C54840307047C44860307047AD
:1005C000C24880307047C148A030704701460020C3
:1005D000062905D2DFE801F00305080B0E11BB4820
:1005E0007047BA4820307047B84840307047B74825
:1005F00060307047B54880307047B448A0307047CD
:1006000001460020062905D2DFE801F00305080BAA
:100610000E11AE487047AD4820307047AB484030AF
:100620007047AA4860307047A84880307047A74894
:10063000A03070470121C803FFF7B7BD00214FF478
:100640000040FFF7B2BD70B50C461546FFF7A4FF9A
:10065000002803D01DB101682143016070BD01680D
:10066000A143016070BD10B50C46FFF795FF00284F
:1006700000D0846110BD10B50C46FFF78DFF002837
:1006800000D0C46110BD002A00D0ECE7F3E710B53C
:10069000FFF782FF08B1406910BD002010BD10B502
:1006A0008B4B50EA020402D0022803D003E0C3F8C7
:1006B000901010BD0AB118B104E0C3F8B01010BD1D
:1006C000012A02D0022803D004E0C3F8941010BD20
:1006D000012A00D0FEE7C3F8B41010BD10B57C4B62
:1006E00050EA020402D0022806D006E0D3F88400C3
:1006F000C840C0F3000010BD0AB130B107E0D3F824
:10070000A400C840C0F3000010BD012A02D0022896
:1007100006D007E0D3F88800C840C0F3000010BD41
:10072000012A00D0FEE7D3F8A800C840C0F30000BB
:1007300010BD674A002802D0022803D0FEE7C2F8A5
:100740008C107047C2F8AC1070477CE78BE792E7DB
:100750009DE7A4E7C2E7ECE770B50C461546FFF746
:100760001BFF002803D01DB101692143016170BD49
:100770000169A143016170BD70B50D4614461E4666
:10078000FFF724FF002804D046B11DB14188214362
:10079000418070BD01882143018070BD1DB1418839
:1007A000A143418070BD0188A143018070BD70B537
:1007B0000D4614461E46FFF709FF002804D046B137
:1007C0001DB1418A2143418270BD018A21430182CA
:1007D00070BD1DB1418AA143418270BD018AA14310
:1007E000018270BD70B50D461446FFF7EFFE00287C
:1007F00001D00DB1448370BD048370BD70B50D464A
:100800001446FFF7E3FE002801D00DB1C48370BD8C
:10081000848370BD10B50C46FFF7D8FE20B10CB133
:10082000C08A10BD808A10BD002010BD70B50C4676
:1008300015461E46FFF7E4FE002805D02EB1032C16
:1008400002D8015D2943015570BD032CFCD8015D20
:10085000A943015570BD70B50C4615461E46FFF7FD
:10086000CFFE002806D036B1032C03D82044017CEB
:100870002943017470BD032CFCD82044017CA9439A
:10088000017470BD70B50C461546FFF7B9FE00281F
:1008900003D0032C01D82044057670BD70B50C46FA
:1008A0001546FFF7ADFE002803D0032C01D82044E5
:1008B000057770BD10B50C46FFF7A2FE20B1032CE2
:1008C00002D82044007D10BD002010BD008009200A
:1008D0000080024010B5B44C0020A060FFF750FC2F
:1008E000B249B0FBF1F1491E6160B149B0FBF1F0D2
:1008F000C0EB00124FF47A71B2FBF1F2521C00EB24
:10090000C003C3EB8013B3FBF1F35B1C42EA032289
:10091000C0EBC00000EB8000B0FBF1F0401C42EAED
:100920000040206010BD2DE9F04FDDF82480154611
:100930001646DFF880A24FF0A054CAF80040012B01
:1009400002D0022B03D005E0C40703D0FEE78407E2
:1009500000D0FEE74FF4001700F03F04C7F88440D2
:100960000024DFF850C24FF0805BACF1080C64E06B
:10097000E3B1012B26D04FF00509C7F88090D6F8D7
:100980000090C7F88890361D001D80B2DCF80090FA
:100990004FEA99695FEAC979F8D04FF08069CAF8DF
:1009A000009040281AD34FF0010919E04FF00309D5
:1009B000C7F8809092F80090C7F88890521C401CAD
:1009C00080B2E3E74FF00409C7F88090B5F80090D3
:1009D000C7F88890AD1C801C80B2D7E74FF00009A3
:1009E000A8F1010E744502D14FF0010E01E04FF065
:1009F000000E59EA0E0914D0CAF800B04FEA816916
:100A00004FEA1959C7F884904FF00609C7F880904B
:100A1000DCF800904FEA19795FEAC979F8D0CAF892
:100A200000B0402808D30020491C89B28146C7F88D
:100A300084903E2900D90021641C444598D3BDE828
:100A4000F08F2DE9F04FDDF8249015461646594CED
:100A50004FF0A057276001F03F07044667F39F144B
:100A60004FF40017C7F884404FF0080A4FF0090B05
:100A70004FF00A0E002B07D0012B08D0C7F880E0FA
:100A80008407DCD1002438E0C7F880A0FAE7C7F873
:100A900080B0C407D3D1F5E793B3012B39D0D7F891
:100AA0008CC0C6F800C0361D001D80B2DFF804C13E
:100AB000ACF1080CDCF800804FEA98685FEAC8786F
:100AC000F8D0DFF8F0C04FF08068CCF80080402804
:100AD00012D3A9F1010C64450ED20020491C89B241
:100AE00001F03F08844668F39F1CC7F884C0C3B177
:100AF000012B19D0C7F880E0641C4C45CCD39EE78D
:100B0000FFE7D7F88CC082F800C0521C401C80B2AE
:100B1000CCE7D7F88CC0A5F800C0AD1C801C80B213
:100B2000C4E7C7F880A0E7E7C7F880B0E4E7F0B50E
:100B30001025204F4FF0A05139601F4E00247460E3
:100B40004FF0050146F880194FF000011B4A4FF0A5
:100B5000806C08E0C6F8884013689B0EDB07FBD06A
:100B6000C7F800C0491CA942F4D34FF08051396046
:100B7000800606F18006000D70604FF006003060C0
:100B800010684FEA1070C007FAD03960F0BD4FF41A
:100B90000011012803D00020C1F8980070470120FF
:100BA000C1F898007047000090002000D8B80500F8
:100BB00040420F00E80F200080002000E00F2000DE
:100BC00070B50020F94C0022F94DE30600EB40011E
:100BD00004EB412603EBC0010E604D600A624A62DD
:100BE000401C0428F2D3F3480360F04944394160C3
:100BF00003218160026170BD30B50020EE4C0022FF
:100C0000E30600EB400104EB412503EBC0010D645A
:100C10004A6403EB80018A65401C0328F1D3E34951
:100C2000E448243914300160E0490C394160022164
:100C30008160C26030BD0179427941EA0222DF4918
:100C40000A648278C37842EA03224A6402784078D0
:100C500042EA002088647047D94A00F01F001279E8
:100C600002F01F0240EA0220D44A9062D1620020C2
:100C70004FF4A023516BC90702D0401C9842F9D30E
:100C80007047CF4900F01F00097901F01F0140EAC9
:100C90000120CA4988620120486200204FF4A02345
:100CA0004A6BD20702D0401C9842F9D30020486218
:100CB000086B80B27047C14900280CD0486840F0EA
:100CC00001004860D1F8000140F48060C1F80001E3
:100CD000152088607047122088607047B749002847
:100CE00002D0481588617047002088617047B3487A
:100CF000D0F8001141F00101C0F80011016841F085
:100D0000010101607047AB480838016841F00201F9
:100D100001607047AB4A012903D01168814311601B
:100D2000704711680143116070477CB505462C225D
:100D30002946A34826F0B9FA01218807FFF735FABA
:100D40009E4C4FF44F4020607820C4F8000164208E
:100D5000019002E0019A521E019201980028F9D1F7
:100D60000220206030206060400160610020FFF7B9
:100D700007FA9549B0FBF1F0009000200190934AEA
:100D800007E00198135C0098834205DA019B5B1C25
:100D9000019301980F28F4D301980F2801D3002064
:100DA0007CBD0198401C0190A889606101984FF4B6
:100DB000004100F00F0041EA80002062206A20F428
:100DC0000040206243F20F7020611220E060400179
:100DD000C4F80001296929B128468847012801D0B3
:100DE00000207CBDA868FFF726FFFFF7E9FEFFF7AC
:100DF00003FF2620C4F800020121FF20FFF78AFF2D
:100E000070494FF6FF70091D0860FFF77CFFFFF780
:100E10006EFF6F484FF08051016001207CBD694931
:100E200000200860674A43F2FF01121D116061490A
:100E3000083908600021D006FFF7B7B95D480838C7
:100E4000016821F00201016070475C48D0F8001190
:100E500021F00101C0F80011016821F001010160D9
:100E60007047564A00280AD002F588729168506887
:100E7000126802F10102814209D10020704702F597
:100E8000927291685068126802F10102F3E721B989
:100E9000521E904201D102207047401C814201D174
:100EA0000220704701207047F8B506460F464148BA
:100EB000203004680025474B07E0009502E00098C9
:100EC000401C009000989842F9D30020FFF7C9FF1A
:100ED0000228F2D04FF0005000EBC400026C761EE6
:100EE000C6F30A011FB141F04041416402E041F004
:100EF000004141641046F8BD3049D1F82801D1F8CD
:100F00002421401C521C904200D10020C1F828012D
:100F100070472848203000684FF0005101EB8000F6
:100F2000806D70472DE9F041456807682348D0F887
:100F300014807F1C4FF6FE700740B7FBF8F6002FB9
:100F40001DD01AE001DD444600E03C46002C16D0DE
:100F500026B1A0B20021FFF7A7FF09E0A0B201214E
:100F6000FFF7A2FF04E035F8021B20F8021BA41EC5
:100F7000002CF8D1761EFFF7BFFF002EE2DABDE8A5
:100F8000F0810C48103000684FF0005101EBC000B8
:100F9000006A70470748103000684FF0005101EBBD
:100FA000C000008CC0F30A00401C704764000020A1
:100FB000FF05008008410820641800200040082038
:100FC0007C050010E44F0820A0252600E8910200CF
:100FD00000E100E040420F00A84800684FF00051D7
:100FE00051F83000E1E7A649D1F81801401C042867
:100FF00000D10020C1F81801D7E72DE9F047DFF84C
:101000008482DFF8889200269F4FA8F12C0509F111
:10101000040A9CE09D4808300460A00720D0FFF738
:10102000B0FF102101EAD041082202EA50520A43DF
:10103000042101EAD0511143C0F3C06211434022A0
:1010400002EA90520A43202101EA106111434FF451
:10105000805202EA1020084390B3296A01B1884700
:1010600014F0300F1BD0FFF754FF4FF4007101EA6A
:1010700050414FF4807202EAD0420A43802101EAD3
:10108000505111434FF4806202EAD0420A434FF4B8
:10109000006101EAD0401043296A01B18847200766
:1010A00046D50120FFF7DDFE18B3FFF773FF0028D8
:1010B0003EDDC21EFFF765FF7549084204D037E0E8
:1010C000FFE724F00204CBE73878796800EB4000B2
:1010D00008EB802000EB4103FFF77EFF79681144A5
:1010E0007960B1F5C06F0AD37E60296A09B1042026
:1010F00088471DE030F8021B23F8021B921E002ACD
:10110000F8DCFFF73EFF400010D5AA6932B138780D
:10111000796800EB400008EB802090477E603878CB
:10112000401CC0B23870022800D33E70FFF75BFF4E
:10113000600602D5E86900B18047E00402D5A86ADC
:1011400000B18047A00402D5686A00B18047D9F891
:101150000040DAF8000004407FF45CAFBDE8F0879F
:101160002DE9F04180464FF0FF304FF0000C2CE0AD
:1011700018F8012B0023041784EAD204E40701D0F5
:10118000444F00E00027441784EA9204E40701D0AA
:10119000414E00E00026841784EA5204E40701D09F
:1011A0003E4D00E0002582EAE074E40701D03C4CAB
:1011B00000E0002487EA0010704068406040120997
:1011C0005B1C022BD7DB0CF1010C8C45D0DBD6E687
:1011D00010B50C460621FFF7C3FFC0F3C5521F2A06
:1011E00001DD304800E0304801DDA2F120024FF07F
:1011F0000103012C04D0016893409943016010BDA4
:10120000016893401943016010BD1D4A012905D0B2
:10121000D2F800128143C2F80012C6E6D2F80012DA
:101220000143C2F80012C10607D5410705D4D2F820
:10123000001221F00401C2F800120107EDD5C00729
:10124000EBD1D2F8000220F00100C2F80002ACE6B7
:101250000B49D1F80422024203D0C1F80802012050
:10126000A3E60020A1E609490968014204D0074924
:1012700008310860012098E6002096E61841082011
:1012800000400820A805001010000010E04F0820C2
:101290000000901BB71DC1046E3B8209DC7604136D
:1012A000B8ED0826144208201042082010B501218C
:1012B0004807FEF77AFFA4480021C161C163C165F8
:1012C000C167C0F89C10C0F8BC10C0F8DC10C0F8B2
:1012D000FC10FF2140F8EC1C40F8E41C10BDF0B5F8
:1012E000994CF43CE3690168012606FA01F5EAB27B
:1012F000134201D00020F0BD944B53F82110354625
:10130000A260027805FA02F2D2B222610022CA601B
:101310000A61026A8A608E4FD0F814C0A3F180027D
:1013200007F12006BCF1070F7DD2DFE80CF00416B0
:10133000304A80163000C2680A6002694A608288BA
:10134000C2F30B03027A02F0070243EA824343EA44
:101350004252804B1A43CA6056E0C3680B60C369AF
:1013600052F823204A60C269BB5C476803F0070358
:10137000B25C63F31F3747EAC33302F0070243EA64
:10138000824343EA425242F00442CA603CE083692D
:1013900052F823200A6002694A608269BB5C476890
:1013A00003F00703B25C63F31F3747EAC33302F06D
:1013B000070243EA824343EA425242F00842CA60CB
:1013C00022E0836952F823300B60C36952F823206E
:1013D0004A608369D0F804C0FA5CF35C02F007024B
:1013E00062F31F3CC26903F00703BF5CB25C07F005
:1013F00007074CEAC73747EA834302F0070243EA8C
:10140000425242F00042CA608269534B082A17D008
:10141000092A15D00F2A0CD9D3F8C461103A05FA5D
:1014200002F2164300E002E0C3F8C46108E00020C5
:10143000F0BDD3F8C46105FA02F29643C3F8C46163
:10144000C269082A13D0092A11D00F2A08D9D3F863
:10145000C461103A05FA02F21643C3F8C46106E00B
:10146000D3F8C46105FA02F29643C3F8C461256358
:10147000226BD207FCD082690F2A00D9103AC369C7
:101480000F2B00D9103B007D02F01F024007800C9B
:1014900040EA420003F01F0240EA821040F440405C
:1014A00008610120F0BD294A52F82000012904D02A
:1014B000016921F0010101617047016941F00101F9
:1014C00001617047204A0123F43A8B40D9B20528C4
:1014D00027D2DFE800F0030A11181F001068084245
:1014E00001D001207047002070475068084201D0A9
:1014F0000120704700207047D068084201D00120C9
:101500007047002070479069084201D00120704761
:10151000002070475069084201D001207047002028
:101520007047D069084201D0012070470020704701
:1015300001228A40D1B2044AF43A002801D0116154
:101540007047916070470000F40008209800001078
:10155000F79102000040028C00C00F40FC490022BD
:101560008A618A6922F00E028A618A69037E03F029
:10157000070342EA43028A61427E022A03D0012A1B
:1015800006D052B10DE08A6942F020028A6122E061
:101590008A6922F010028A6103E08A6942F010022F
:1015A0008A618A6922F020028A61827E22B18A6978
:1015B00042F040028A6103E08A6922F040028A61B7
:1015C000C27E22B18A6942F080028A6103E08A69A0
:1015D00022F080028A6190F82C2022B18A6942F4BC
:1015E00080728A6103E08A6922F480728A61027FD4
:1015F00022B18A6942F400728A6103E08A6922F4A6
:1016000000728A61407F20B1886940F480608861FF
:1016100003E0886920F480608861886920F40060B4
:1016200088617047CA4A21F00701002801D0516142
:1016300070471161704710B5C649C74A097E525CB0
:101640000121914001EBD1714B10C449002202E00D
:1016500010C810C1521C9A42FAD310BD10B58B7934
:10166000BB4A002B04D0936843F40063936003E00B
:10167000936823F4006393604B7923B1936843F438
:101680008053936003E0936823F4805393600B7955
:1016900023B1936843F40053936003E0936823F409
:1016A000005393608B7823B1936823F48043936055
:1016B00003E0936843F4804393609368A84C23400D
:1016C000936094680B885B1E44EA0343936001288F
:1016D00001D0002806D19068C97801F01F0140EAC6
:1016E0008110906010BD9A4900224A604A68437890
:1016F00042EA03624A604A68037842EA03424A6067
:101700004B688278521E02F03F0243EA82224A600E
:101710004A6883885B1EC3F309031A434A608E49F3
:10172000808810394860704710B5894900220A60E6
:101730000B684278521E43EA02620A600B68027824
:10174000521ED2B243EA02420A600B688278521EED
:10175000D2B243EA02220A600A6883883F2404EB7B
:10176000131303F03F0342EA83020A607A49808838
:101770001039086010BD70B504464FF0FF32002CE0
:1017800007D0217F607F30B10020014205D0104694
:1017900070BD104670BD0120F7E7302221466D482C
:1017A00025F083FD07220421002001F0FFFB072222
:1017B0000521002001F0FAFB07220621002001F09C
:1017C000F5FB07221146002001F0F0FB072208215B
:1017D000002001F0EBFB07220921002001F0E6FBCD
:1017E00007221421012001F0E1FB0722152101202D
:1017F00001F0DCFB07221621012001F0D7FB0722B4
:101800001721012001F0D2FB07221821012001F04D
:10181000CDFB07221921012001F0C8FB07221A2164
:10182000012001F0C3FB07221B21012001F0BEFBB8
:1018300007221C21012001F0B9FB07221D210120F4
:1018400001F0B4FB07220021022001F0AFFB0022CF
:101850000121022001F0AAFB02210722084601F023
:10186000A5FB07220321022001F0A0FB072204218F
:10187000022001F09BFB07220521022001F096FBCC
:1018800007220621022001F091FB072211460220C7
:1018900001F08CFB07220821022001F087FB0722C0
:1018A0000921022001F082FB07220B21022001F016
:1018B0007DFB07220C21022001F078FB07220D217D
:1018C000022001F073FB07221C21042001F06EFBB3
:1018D00007221D21042001F069FB22480221016436
:1018E0000A21816501210846FEF75FFC184DA868B2
:1018F00020F02000A860606970B10020FEF740FC75
:101900006169B0FBF1F0401E00F01F011648016054
:10191000A86840F08060A8602046FFF705FFA01D82
:10192000FFF7E1FE607E04F10C01FFF797FEA06A6D
:1019300008B1FFF780FE0020216AFFF773FE012047
:10194000616AFFF76FFE2046FFF708FE002070BDBA
:1019500000800820A81D0010C80000100082082088
:10196000FFFF00FC00800920B8C10F4008B5FB490B
:1019700042F21072002810D0886940F0010088619E
:10198000009202E00098401E009000980028F9D1D3
:10199000886940F40060886108BD886920F40060AF
:1019A0008861009202E00098401E00900098002894
:1019B000F9D1886920F00100886108BDE84A126801
:1019C00001FB0200E749E64A097E1032515C4143BF
:1019D0004809704710B5E24A126801FB0200E14B6A
:1019E000DF491A7E1031895C484300F01F005A7F9E
:1019F0001B7F1A4203D0C1F12001081A10BD6BB140
:101A000000231A42FAD00829F8D200F00702C2F1E6
:101A10000802511A20F00700084410BD0123F0E726
:101A200018B5CE4A00280FD05069CE4ACC4B127E52
:101A300010339C5CCA4AD2E9003253435C43E2084B
:101A4000002319B1009313E01069EEE7009304E05E
:101A500000F8013B0099491C009100998A42F7D88F
:101A600009E011F8013B00F8013B009B5B1C00936F
:101A7000009B9A42F5D842F21070009002E0009864
:101A8000401E009000980028F9D118BD2DE9BF43F1
:101A90000B46914603ACB349B14A097E1032555CFE
:101AA000EF08AF490A68934239D24968894536D26E
:101AB000DFF8A882A8B149461846FFF77FFFD8F89B
:101AC000141001EB800849461846FFF783FF08EB26
:101AD000D00200F00700082D23D200214FF0010CA6
:101AE0001BE049461846FFF769FFD8F8101001EBD4
:101AF0008008E8E713780CFA00F7BB4313702778E7
:101B000006EB010827FA08F707F0010787401F4393
:101B10001770491CC9B2401CC0B2A942EAD3BDE843
:101B2000BF83002003E014F8011B1154401CB8428D
:101B3000F9D3F4E72DE9FF4F84B01D468948884961
:101B4000007E10310C5C4FEAD4080820B0FBF4F0A2
:101B5000E968002901D1C5F80C802E6869680191F7
:101B600000B9012002900027DCE00498C0B1DDE953
:101B70000501FFF723FF7949496901EB8009DDE998
:101B80000501FFF727FF09EBD00100F007000090E7
:101B9000E86870B16B6907FB06F200FB023310E0E6
:101BA000DDE90501FFF70AFF6C49096901EB8009CE
:101BB000E5E7A86807FB06F250436A69C01D02EB1F
:101BC000D003059A4FF0000BA1E0654800688242FF
:101BD0007CD20598101AB04278D2082C78D200989E
:101BE000C0B24FF000094FF0000C21E091F800A0C6
:101BF0004FF0010E0EFA00FE2AEA0E0A81F800A04C
:101C0000CDF80CA093F800A009EB0C0E2AFA0EFAFE
:101C10000AF0010EDDF80CA00EFA00FE4EEA0A0EE4
:101C200081F800E00CF1010C0CF0FF0C401CC0B27C
:101C3000A445DBD3DFF82CA19AF81CC0BCF1000F3F
:101C400017D09AF81DE0BEF1000F12D0B0EB440F90
:101C500005D3C4F1000C00EB4C00C0B223E0C4F18A
:101C60000800C0B25FEA817C01D0491E1BE0C91D9B
:101C700019E0BCF1000F12D19AF81DC0BCF1000FA1
:101C80000DD0B0EB440F05D3C4F1000C00EB4C00B9
:101C9000C0B208E0C4F10800C0B2491C03E0082843
:101CA00001D30020491C521CDFF8B4C0DCF800C08E
:101CB000624509D2DDF814C0A2EB0C0CB44503D286
:101CC000A144B9F1080F8ED35B1C1EE022E0FFE7B0
:101CD000002008E013F801CBDDF844908CEA090CF1
:101CE00001F800C0401CD5F80CC08445F2D81D484E
:101CF000007F40B1880702D0A1EB080104E0C8F1E1
:101D00000800014400E04144521C02988344B3455A
:101D10007FF65BAF0699481C0690114840688142E7
:101D200004D27F1C01988742FFF41FAF08B0BDE8C2
:101D3000F08F2DE9F04788B00746DDE910A98C4601
:101D4000904608480649007E1031095C2020B0FB0F
:101D5000F1F60020002201250AE0000000800820A2
:101D6000B8000010A81D001005FA02F42043521C10
:101D70008A42F9D309EA00090025002205E002FBA6
:101D800001F409FA04F00543521CB242F7D353455B
:101D900001D9564600E01E4600D85346C44501D935
:101DA000C14600E0E14600D9E04603914FEAD10088
:101DB0000490A8EB090202F101020192A3EB0604D0
:101DC00004F101045148069002FB01F24FF4004176
:101DD000B1FBF2F84FF000014FF4806240F821505F
:101DE00001F101019142F9D3002516E0029401AB03
:101DF0003246494638460095FFF79CFE08B0BDE8DC
:101E0000F087CDF808800298241A01AB3246494683
:101E100038460095FFF78EFE4644A045F1D3E5E72E
:101E200003783B493B4A002B06D00B6823F00103A3
:101E30000B602023D36005E00B6843F001030B60C7
:101E40004023D360437823B10B6823F002030B6077
:101E500003E00B6843F002030B6081689160C17876
:101E60000279090241EA024182781143284A121D8F
:101E700011608179C2790902407941EA0241014346
:101E80002348083001607047214A121F002808D0FB
:101E9000106840F001001060106840EA0110106006
:101EA0007047106820F001001060704710B5184AA4
:101EB000002410321460131F1C60002805DB1C680E
:101EC000C0F3090004431C6003E01468404204436B
:101ED0001460002904DB186840EA0140186010BD56
:101EE0001068494240EA0120106010BD10B5094C4D
:101EF000A368E468202C01D103EB0123002102E058
:101F000010C810C3491C9142FAD310BDD81D00104F
:101F1000048C0820B800001030B589B00C464FF48E
:101F2000007101910221029105920023089300940F
:101F3000FE490125052A04D0062A07D0002009B051
:101F400030BD039004910693079503E0039104903C
:101F5000069507936846FFF7C2F9E0B20121FFF743
:101F6000A2FA1A2000F0BAFF0120E8E710B5032119
:101F70000020FFF7A7FAEE4CC8B103210120FFF7BC
:101F8000A1FA30B103210020FFF7D2FA206A401CE9
:101F9000206203210220FFF795FA002806D00321D2
:101FA0000120FFF7C5FA606A401C606210BD042181
:101FB0000020FFF787FA0028F8D004210120FFF75E
:101FC00081FA30B104210020FFF7B2FAA06A401C68
:101FD000A06204210220FFF775FA0028E6D0042150
:101FE0000120FFF7A5FAE06A401CE06210BD10B5C1
:101FF000CF4C2178002908D008210F2223783BB14B
:1020000000232370C94B803B0BE000210722F5E73A
:102010000123F6E703EB8104D4F8804010C0491C8B
:10202000C9B29142F6D9002010BD30B5C04C21781C
:10203000002908D008210F2223783BB10023237008
:10204000BA4B803B0BE000210722F5E70123F6E7BE
:1020500010C803EB8105C5F88040491CC9B2914204
:10206000F6D9002030BDB1488038C16B40F21A72F9
:102070001143C1637047AD488038C16B40F21A729A
:102080009143C1637047A9488038C16B40F22A72FE
:102090001143C1637047A5488038C16B40F22A7272
:1020A0009143C1637047F0B50346002904D000276F
:1020B0009E4D7E1E803D34E00020F0BD40F00401C6
:1020C000A963EF60AE600021491C1029FCD3F0BD6C
:1020D000C40712D040F00104AC63EC6804F03F0484
:1020E000012C03D0292C01D00C2CF0D1EF60AE6074
:1020F0000020401C1028FCD304E0440611D540F019
:102100004000A863286900F03F0098420DD0012BE1
:102110000BD0292B09D0022B07D0092B05D0304634
:10212000F0BD686B4407D3D5C8E77AB1012902D066
:10213000022903D00AE06869106007E0686910604E
:10214000A8695060E8699060286AD0600020F0BDFE
:10215000F8B50026076845688268D0F80CC0734B54
:102160000024803B0BE0DC60009402E00099491CF5
:10217000009100991029F9D340F400609863586BDE
:102180000105F0D407F03F00304322B1012A05D009
:10219000022A06D007E020F0C00004E040F0400032
:1021A00001E040F0C000BCF1010F0AD040F48070A3
:1021B00040F4806040F2FF7199639D60D8600094A4
:1021C00005E020F48070F3E70098401C0090009830
:1021D0001028F9D3586B0028FCD0586B0005FCD4AC
:1021E000F8BD70B5066884680569FFF7B1FF55EA68
:1021F000040005D02A4621463046BDE8704052E72B
:102200006FF0010070BDF0B58AB005464FF0FF30A9
:10221000002D16D046498A78B2B18A78022A13D0A6
:102220008A78032A10D04FF4803120240D220092A6
:10223000019101210291039105A90491002706460D
:1022400016E000200AB0F0BDC969EEE76846FFF766
:10225000C8FF18B13046641E099706E0059828604B
:102260000020EFE70999491C099109991029F9D330
:10227000002CEBD1E6E7F8B506464FF0FF352C0C05
:102280002F1F6846FFF7BFFFB0B90099C80501D4FA
:102290003D460AE0C1F34321B14204D0072904D0EE
:1022A0006FF00300F8BD0020F8BD641E0021491C3A
:1022B0002029FCD3002CE4D12846F8BD1B498039E5
:1022C000486BC20701D001228A63420701D504226C
:1022D0008A63420601D540228A63020601D5802224
:1022E0008A63000502D54FF40060886370470F4988
:1022F0008039486B8207002A01DA02228A630207CA
:1023000001D508228A63C20601D510228A6382069B
:1023100001D520228A63820502D54FF400728A63B8
:10232000034900224A6088607047000080000C402A
:10233000D000001000B5FE49486BC205002A0ADA39
:1023400088158863FB48002141608160FFF793FE98
:102350005DF804EB9FE6400502D54FF4806088638A
:1023600000BDE1E7F248406B40F23A21084200D05C
:10237000BDE710F4A06F00D0DCE7EF49084200D0C1
:10238000EFE740F6C5010842CED097E7CCE738B575
:1023900004460120FDF7F4FE00EB4400401E6100FE
:1023A000B0FBF1F000B1401EE1494A6822F0FF02A3
:1023B000024342F4807048600020009002E00098E0
:1023C000401C009000981028F9D338BDF0B58AB0B1
:1023D0004FF0FF30D7498A78002A14D08A78022A31
:1023E00011D08A78032A0ED00021142437220092BB
:1023F000019101210291039105A9049105466FF015
:102400000406002716E0C969EFE76846FFF7E9FE12
:1024100008B1284605E00598800601D5002011E79F
:102420003046099702E00999491C09910999202928
:10243000F9D3641E002CE8D104E7F0B58AB04FF060
:10244000FF34202506210091019001200290039085
:1024500005A804902646002721E00420FFF70BFF83
:1024600004460CB12046EDE6FFF7B0FF20B9684600
:10247000FFF7B7FE10B1344609970CE0AF49059855
:10248000084201D04816DDE60420FFF7F4FED9E645
:102490000998401C099009982028F9D36D1E002D39
:1024A000DBD12046CEE608B501460020A04A00292F
:1024B00002D0012905D009E0516821F40061516082
:1024C00004E0506840F4006050600A200021009150
:1024D00002E00099491C009100991029F9D395490F
:1024E0008A782AB18A78022A02D08978032905D10C
:1024F000FFF7A3FF10B14FF0FF3008BD002008BD6B
:1025000070B58AB04FF0FF304FF400740121009194
:102510008B4A01920291039105A90491851E002620
:1025200016E06846FFF75DFE400701D5284603E048
:102530000598002802DB2846099605E000200AB02D
:1025400070BD0999491C099109992029F9D3641E84
:10255000002CE6D1F3E70021754A012807D0106866
:1025600000F083001060491C1029FCD3DCE61068E1
:1025700040F040001060F6E7F0B58AB04FF0FF354C
:102580006F4941EA80704FF4005429210091019075
:1025900001200290039005A804900020FFF7DBFFC4
:1025A000AE1E00271FE0FFF711FF050001D02846EF
:1025B00048E66846FFF715FE400701D5354603E0BB
:1025C0000598002802DB3546099708E00598594927
:1025D000C0F38070487008E00999491C0991099975
:1025E0002029F9D3641E002CDDD128462AE62DE9E6
:1025F000F0418AB04FF0FF300125AA264FF4D57183
:10260000142408220092019101210291039105A94D
:1026100004914FF00008871E1EE06846FFF7E1FDB9
:10262000400703D53846CDF8248011E00598C1B2A3
:102630006FF00100B14205D10599C1F30321A94210
:1026400000D100200AB0BDE8F0810999491C099128
:1026500009992029F9D3641E002CDED1F2E700B5D8
:1026600085B000200090019002900390049068468D
:10267000FFF76EFD05B0002000BD78B54FF0FF34C8
:102680002C4DAC70FFF7EBFF08B1204678BD002061
:10269000FFF761FF002600964FF4405402E00098D7
:1026A000401C00900098A042F9D3FFF7A0FF811CC6
:1026B000ECD018B90120FFF75FFF40B10020FFF711
:1026C0005BFF60B10120FFF746FF00960DE002209E
:1026D000A870687808B10320A870002078BDAE709B
:1026E000002078BD0098401C00900098A042F9D3CB
:1026F000FFF706FF08B1002078BD0120A870002078
:1027000078BDF8B504460B49FF2088700D4908686C
:1027100020F01F000860486820F01F004860C8686B
:1027200020F01F00C860086920F01F0008610BE05E
:1027300000000C40D000001000C40F000880F8FD1D
:102740000080FF0088C00240486920F01F004861F7
:10275000486A20F01F004862886A00F01F00886203
:10276000F949086A41F6EC02104308624FF48050C0
:10277000C8634010C8638020C8634020C86320201D
:1027800088630820C8630420C8630025009582047C
:1027900002E00099491C009100989042F9D3EB4F58
:1027A000386840F0805047F8C409E94E7068C005A9
:1027B0000BD5706820F480707060009502E000997D
:1027C000491C009100981028F9D33068800708D57B
:1027D0003560009502E00099491C0091009810288E
:1027E000F9D3F56302221146012000F0DFFB02223B
:1027F0000321012000F0DAFB02220521012000F074
:10280000D5FB02220621012000F0D0FB0222072185
:10281000012000F0CBFB02220B21012000F0C6FBBF
:1028200002220C21012000F0C1FB5CB1D7F8A0010D
:1028300040F00800C7F8A0016FF060407062F560DA
:10284000009509E0D7F8A00120F00800C7F8A00122
:10285000F2E70098401C009000981028F9D3F56228
:10286000009502E00098401C009000981028F9D3D1
:1028700040F2FF70B06302203060009502E00098E3
:10288000401C009000981028F9D300954FF40021C7
:1028900002E00098401C009000988842F9D3AD48AF
:1028A000FFF775FD306840F001003060009502E0F0
:1028B0000098401C009000981028F9D31D2000F0CB
:1028C0000DFBFFF7DAFE0020F8BDA34890F90200E7
:1028D0002AE570B58AB004464FF4007502200090D6
:1028E0000026019602900120039005A8049034E090
:1028F0006846FFF776FC400726D41CB30598000E07
:1029000020700598C0F30F2060800598207106980C
:10291000A0600798000E207307980899000240EA0B
:10292000116020610898C0F3045020750898C0F326
:102930000B20E0820898C0F346002076089800F04B
:10294000010060760020FAE5099602E00998401C33
:10295000099009982028F9D36D1E002DC8D1E81ED2
:10296000EDE52DE9F04387B04FF0FF307A4DA978BF
:10297000002918D0A978022915D0A978032912D0E6
:102980004FF4803120240322009201910121029111
:10299000039105A90491961F6FF004076FF00308D7
:1029A0004FF0000929E00021ECE76846FFF719FC29
:1029B000400701D5304609E00598C10501D43846E5
:1029C00004E0C0F34320022803D04046CDF818901D
:1029D0000FE00598000CE861E8690004E861002058
:1029E000FFF7B9FD002007B0BDE8F0830699491C48
:1029F000069106992029F9D3641E002CD5D1F2E75F
:102A00005548C06990E470B58AB00546524881784F
:102A1000002913D08178022910D0817803290DD0A4
:102A20004FF480302024092100910190022002906F
:102A30000120039005A80490002620E0C069F1E77A
:102A40000320FFF718FC10B16FF0030077E568462C
:102A5000FFF7C7FB08B109960DE03DB10598286066
:102A6000069868600798A8600898E860002066E506
:102A70000999491C099109992029F9D3641E002C50
:102A8000DED1601E5BE570B58AB04FF0FF36304690
:102A900031498A78002A13D08A78022A10D08A789D
:102AA000032A0DD04FF48031202407220092019197
:102AB00001210291039105A904916FF0030540E003
:102AC000C969F1E70320FFF7D6FB88B10420FFF7BF
:102AD000D2FB68B10520FFF7CEFB48B10720FFF716
:102AE000CAFB28B10820FFF7C6FB08B1284626E537
:102AF0006846FFF776FB18B13046002109911CE0CB
:102B000016490598084201D0481618E50320FFF73A
:102B1000B2FB68B10420FFF7AEFB48B10720FFF716
:102B2000AAFB28B10820FFF7A6FB08B1284606E556
:102B3000002004E50999491C099109992029F9D334
:102B4000641E002CBED1FAE400800920C4C00F40EE
:102B500000000C40801A0600D00000100880F8FD2C
:102B600070B58AB001464FF0FF3020241022009249
:102B7000019101210291039105A9049100250646C6
:102B80001EE00420FFF777FB10B16FF00300D6E4DE
:102B90006846FFF726FB10B1304609950CE0D54991
:102BA0000598084201D04816C9E40420FFF763FBEA
:102BB000C5E40999491C099109992029F9D3641E92
:102BC000002CDED1BBE4CC484068CFE4CA48806822
:102BD000CCE42DE9F0418AB04FF0FF380420FFF734
:102BE0004AFB60B120240C200090002601960120B1
:102BF0000290039005A80490371F45462BE0002063
:102C000020E50520FFF737FB28B10620FFF733FB4F
:102C100008B1384616E56846FFF7E3FA10B1A84652
:102C2000099614E0B3490598084201D0481609E511
:102C30000720FFF720FB28B10420FFF71CFB08B199
:102C40003846FFE40020FDE40998401C09900998EB
:102C50002028F9D3641E002CD3D14046F2E4F0B50D
:102C60008AB002464FF0FF30012901D9192100E056
:102C7000182120240091A049897803290BD0510202
:102C8000019101210291039105A904916FF00307BD
:102C90000026054627E00192F3E70420FFF7EBFA50
:102CA00008B1384684E46846FFF79BFA10B128461D
:102CB000099614E08F490598084201D0481677E438
:102CC0000620FFF7D8FA28B10420FFF7D4FA08B19C
:102CD00038466DE400206BE40999491C0991099973
:102CE0002029F9D3641E002CD7D161E4F0B58AB055
:102CF00002464FF0FF30012901D9122100E01121D5
:102D0000202400917C49897803290BD0510201913C
:102D100001210291039105A904916FF00307002698
:102D2000054627E00192F3E70420FFF7A4FA08B173
:102D300038463DE46846FFF754FA10B12846099634
:102D400014E06C490598084201D0481630E405208B
:102D5000FFF791FA28B10420FFF78DFA08B1384641
:102D600026E4002024E40999491C099109992029A5
:102D7000F9D3641E002CD7D11AE42DE9F843894613
:102D8000144600254FF48031B1EB442F02D8A81E21
:102D9000BDE8F883584FF860DFF8608140F2FF70BB
:102DA000C8F838000026C8F82C60009602E00099A8
:102DB000491C009100981028F9D30420FFF75BFA12
:102DC00010B16FF00300E3E74D48C8F8240060023B
:102DD000C8F8280001207860BE603E707E61FFF771
:102DE00042F921464846FFF73AFF10B14FF0FF3055
:102DF000CEE705220321F868FFF78EF845F0990029
:102E0000C8F82C00009602E00098401C0090009842
:102E10001028F9D30020BBE72DE9F8430F461446EC
:102E200000254FF48031B1EB442F01D8A81EAFE745
:102E3000DFF8C480C8F81000DFF8C09040F2FF70DF
:102E4000C9F838000026C9F82C60009602E0009905
:102E5000491C009100981028F9D30420FFF70BFAC1
:102E600010B16FF0030093E7FFF70DF92548C9F89B
:102E700024006002C9F828000120C8F80400C8F83E
:102E80000860C8F8186088F8006006220421D8F8A5
:102E90001000FFF741F845F09B00C9F82C000096A0
:102EA00002E00099491C009100981028F9D32146AE
:102EB0003846FFF71BFF10B14FF0FF3068E70020E6
:102EC00066E708B50D4900200860009002E0009810
:102ED000401C00900098FF28F9D908BD00F01F029F
:102EE0000121914040094FF0E02202EB8000C0F840
:102EF0000011EDE40880F8FDD000001000000C4047
:102F0000002D3101404B4C0001EB4010ED4901EB2D
:102F10008000704702460520062A0ED2DFE802F044
:102F2000032E3838383A062906D9A1F10A02012AB7
:102F300002D9121F082A01D8002070470C2905D099
:102F40000D2903D0A1F11702032A01D801207047EF
:102F50001D290FD01E290DD01F290BD01B290BD0E6
:102F60001C2909D0072903D0082901D00929EED14D
:102F70000420704702207047032070471D2901D8A4
:102F8000002070471E2901D01F29FAD10120704767
:102F900000207047012907D9042905D0022901D052
:102FA0000329F6D1032070470020704770B505460D
:102FB0000E46144631462846FFF7ACFF05280CD0D4
:102FC00031462846FFF7A0FF016821F0070104F011
:102FD000070211430160002070BDBB4870BD70B591
:102FE00005460E46144631462846FFF793FF05284E
:102FF00007D040B1012806D0042804D0B248401CB4
:1030000070BDB14870BD31462846FFF77DFF0168AD
:1030100021F01801182202EAC402114301600020C5
:1030200070BD70B505460E46144631462846FFF77A
:1030300071FF052805D030B1042804D0A248401CF7
:1030400070BDA14870BD31462846FFF75DFF2CB129
:10305000016841F020010160002070BD016821F08D
:1030600020010160F8E770B505460E46144631466A
:103070002846FFF74FFF05280CD002280CD0314618
:103080002846FFF741FF54B1016841F0400101605B
:10309000002070BD8C4870BD8B48401C70BD01681D
:1030A00021F040010160F3E770B505460E46144675
:1030B00031462846FFF72EFF052805D030B10428F9
:1030C00004D08148401C70BD7F4870BD3146284601
:1030D000FFF71AFF2CB1016841F400710160002074
:1030E00070BD016821F400710160F8E770B5054614
:1030F0000E46144631462846FFF70CFF052804D03B
:10310000032804D07048401C70BD6F4870BD314624
:103110002846FFF7F9FE24B1016821F480710160AF
:1031200003E0016841F480710160002070BD2DE969
:10313000F04106460F46154639463046FFF7EAFE8F
:10314000052805D0032805D05F48401CBDE8F08164
:103150005D48FBE739463046FFF7D6FE044635B1F9
:10316000012D0ED0022D16D04FF0FF30EEE70122D8
:1031700039463046FFF7BAFF206820F4007020601F
:1031800012E0002239463046FFF7B0FF206820F4F5
:103190000070206008E0012239463046FFF7A6FFA4
:1031A000206840F4007020600020CFE770B505462D
:1031B0000E46144631462846FFF7ACFE052807D0D8
:1031C00040B1012806D0042804D03F48401C70BDFF
:1031D0003D4870BD31462846FFF796FE2CB1016888
:1031E00041F480610160002070BD016821F48061BC
:1031F0000160F8E770B505460E461446314628468C
:10320000FFF788FE052804D0012804D02E48401C72
:1032100070BD2D4870BD31462846FFF775FE24B1BC
:10322000016821F08001016003E0016841F0800144
:103230000160002070BD70B505460E46144631464B
:103240002846FFF767FE052801D025B901E01E4892
:1032500070BD1A2E02D01C48401C70BD3146284655
:10326000FFF752FE24B1016841F48031016003E0B0
:10327000016821F480310160002070BD70B5054601
:103280000E46144631462846FFF744FE052806D070
:10329000012806D0042804D00B48401C70BD0A4801
:1032A00070BD31462846FFF72FFE24B1016821F496
:1032B0008071016003E0016841F4807101600020C9
:1032C00070BD000000C0024001000010002803D0C3
:1032D000012803D000207047E5487047E548704753
:1032E00010B50C46FFF7F2FF0068204201D0012024
:1032F00010BD002010BD10B50C46FFF7E7FF0460BD
:1033000010BD0122002805D0012802D100204870FC
:103310000A7070470A704A6070472DE9F04105460F
:10332000884617462846FFF7D1FF044615B1012D00
:1033300005D0FEE701212020FCF737FF03E0012143
:103340004020FCF732FF0120FCF71AFF054600265B
:103350003F202060666026676661A662E664266597
:10336000B8F1000F0DD0B8F1010F08D1787800F056
:103370000301387861F39F00216F08432067BDE89F
:10338000F081387870B17968A1FB050306FB05323E
:1033900001FB0621B84A002323F056FF05466D1EA7
:1033A000E560ECE77868401EE060E8E710B50446A9
:1033B0002046FFF78BFF0021416034B1012C0AD178
:1033C000BDE810404020FCF7F0BE0021BDE81040F1
:1033D0002020FCF7EABE10BD10B50C46FFF776FFC3
:1033E000012C04D0416801F00301416010BD416827
:1033F00041F00801416010BD10B50C46FFF766FFB3
:10340000012C04D0416801F00A01416010BD4168FF
:1034100041F00101416010BD10B5FFF757FF416851
:1034200041F002014160416801F00901416010BDB5
:1034300070B50C46FFF74AFF627801218F4B012AD5
:103440002AD0227802F0070202EB420201FA02F5CA
:1034500023EA050245692A404261E278012A26D022
:10346000227802F0070202EB4202521C01FA02F536
:1034700023EA050245692A404261A278012A22D046
:10348000227802F0070202EB4202921C91408B4329
:1034900041690B40436170BD2278456902F0070223
:1034A00002EB420201FA02F22A434261D5E7227896
:1034B000456902F0070202EB4202521C01FA02F2D5
:1034C0002A434261D9E7227802F0070202EB420266
:1034D000921C914042691143416170BD70B50C4628
:1034E000FFF7F4FE627801213F23012A2AD02278D7
:1034F00002F0020565F35F0201FA02F523EA050214
:10350000856A2A408262A278012A26D0227802F0B7
:10351000020565F35F02521C01FA02F2856A23EA92
:1035200002022A408262E278012A22D0227802F046
:10353000020464F35F02921C91408B43816A0B404A
:10354000836270BD227802F0020565F35F0201FA22
:1035500002F5826A15438562D5E7227802F00205FA
:1035600065F35F02521C01FA02F5826A1543856217
:10357000D9E7227802F0020363F35F02921C9140C4
:10358000826A1143816270BD10B50C46FFF79EFE42
:103590001CB1012C03D0002010BDC06A10BD006B0F
:1035A00010BD70B50D4614461E46FFF78FFE072D61
:1035B00012D2DFE805F00406080A0C0E1000846140
:1035C0000AE0C46108E0046206E0446204E00464C6
:1035D00002E0446400E08464026D072D02D2012100
:1035E000A94000E000210A430265002E07D141688E
:1035F00041F002014160416801F00901416070BD84
:1036000070B50C461546FFF761FE0123A34004F098
:10361000070135B1C26C022900D200231A43C264EB
:1036200070BDC26C022900D2002347F67C61994329
:103630000A40C26470BD70B50C461546FFF746FEE1
:10364000012104F108039940012D03D0C26C6307E6
:1036500007D007E0C26C630700D100210A43C264AF
:1036600070BD002147F67C638B431A40C26470BD75
:10367000004001400080014040420F00FFFF1F005A
:1036800001460020002905D0022905D0032900D1D8
:10369000FC487047FC487047FC4870472DE9F34FE1
:1036A00083B08B46002002900120FCF769FD019059
:1036B0004FF0FF384FF0000A4FF000090024254674
:1036C0000126002723E0019800234FEA101C010780
:1036D000A1FB060E0CFB06ECF21901FB03C102FB79
:1036E0000BF223F0B1FDB0F1004F01D94042491C6B
:1036F0004A1EB2F5803F09D2404507D280460025D8
:103700000C46BA46B146B8F1000F02D07F1CB74252
:10371000D9D3B8F1000F02D0761C0F2ED1D954EABC
:10372000050002D105B0BDE8F08F09EB0A01A1FB4D
:103730000426002303FB0463019801FB0533000901
:1037400000FB09F0002123F07FFD834502D9ABEB9C
:10375000000001E0A0EB0B0064214843B0FBFBF04C
:1037600003281DD2039801281CD0039804282FD0C9
:103770000398FFF785FF017B41F080010173210A67
:1037800041EA056101710470017B01F07F01017361
:103790000AF00F0242EA091180F828100120029075
:1037A0000298BFE7BA48017B41F080010173210A0A
:1037B00041EA056101710470017B01F07F01017331
:1037C0004FEA09710AF00F0242EA11618162E5E7EE
:1037D000B048C16841F08001C160210A41EA056139
:1037E000C9B24160E1B20160C16801F07F01C1600E
:1037F0004FEA09710AF00F0242EA11618162CDE7D6
:103800002DE9F05F05460E460024A14FDFF88482C3
:103810004FF007094FF0800A052D3DD2DFE805F093
:10382000033D03035D002846FFF72AFF834625B1C9
:10383000022D07D0032D0AD00DE001210820FCF74E
:10384000B4FC08E001210806FCF7AFFC03E001210D
:103850004806FCF7AAFC8BF808908BF8084001E0BA
:103860009BF800009BF81400C007F9D18BF830A03A
:103870009BF814008006FBD58BF83040CBF8044051
:103880008BF80C40CBF820408BF84C408BF8544020
:103890008BF850409BF8140047E001211020FCF702
:1038A00084FC87F808903C7200E03878387DC007C7
:1038B000FBD187F830A0387D8006FCD587F83040F2
:1038C0007C603C733C6287F84C4087F8544087F832
:1038D0005040387D3C74387E27E001210802FCF717
:1038E00064FCC8F80890C8F8084001E0D8F8000067
:1038F000D8F81400C007F9D10120C8F85C00D8F846
:1039000014008006FBD5C8F85C40C8F80440C8F82D
:103910000C40C8F82040C8F84C40C8F85440C8F8DB
:103920005040D8F81400C8F8244028463168FFF702
:10393000B5FE012D1CD0042D1ED02846FFF7A0FE99
:10394000007B00F0C004707928B1012819D002284A
:103950001AD044F00304307908B344F00804012875
:103960001DD0022813D0032814D0042817D114E046
:10397000387B00F0C004E6E7D8F80C0000F0C00483
:10398000E1E744F00104E6E744F00204E3E744F031
:10399000100404E044F0200401E044F03004B07965
:1039A000012801D144F00404012D07D0042D07D0D3
:1039B0002846FFF765FE0473BDE8F09F3C73FBE704
:1039C000E0B2C8F80C00F7E710B5314B314A0129D5
:1039D0000AD0002401281ED0042820D0FFF750FE72
:1039E00010F8301F047010BD012809D004280DD034
:1039F000FFF746FE10F8301F41F08001017010BD46
:103A000013F8300F40F08000187010BDD06D40F0FA
:103A10000100D06510BD13F8300F1C7010BDD06DC3
:103A2000D46510BD10B5044600212046FFF7CCFF39
:103A30006CB1012C11D0022C15D0032C1AD0042CFF
:103A40001FD10021A001BDE81040FCF7AEBB002152
:103A5000BDE810400820FCF7A8BB0021BDE81040DD
:103A60001020FCF7A2BBBDE8104000214FF0807091
:103A7000FCF79BBBBDE8104000214FF00070FCF745
:103A800094BB10BD00C0094000C000400080094048
:103A90000000014000400A404FF41651016003212C
:103AA00041710021017181717047052806D2DFE85C
:103AB00000F00306090C0F00F84801707047F84841
:103AC00001707047F74801707047F7480170704700
:103AD000F64801607047052814D2DFE800F00306BD
:103AE000090C0F00ED4800787047ED4800787047EA
:103AF000EC4800787047EC4800787047EB48006865
:103B0000C0B27047002070472DE9F04180460C4656
:103B100018460026B8F1050F12D2DFE808F00306B8
:103B2000090C0F00DD4E14360AE0DD4E143607E0B6
:103B3000DC4E143604E0DC4E143601E0DB4E143665
:103B4000012801D000252AE0002515E04FF0FF30C4
:103B500001E018B1401E31688906FAD508B3102774
:103B600007E014F8011B4046FFF79FFF7F1E521E1F
:103B70006D1C0FB1002AF4D1002AE7D111E03068A2
:103B800080060ED5102707E014F8011B4046FFF70A
:103B90008CFF521E7F1E6D1C0FB1002AF4D1002A2B
:103BA000EDD12846BDE8F081F0B506461846002460
:103BB000052E12D2DFE806F00306090C0F00B74C01
:103BC00014340AE0B64C143407E0B64C143404E064
:103BD000B54C143401E0B54C1434012801D0002553
:103BE0001EE000256F1E0EE03B4601E01BB15B1E90
:103BF0002068C007FAD0ABB13046FFF76CFF01F880
:103C0000010B521E6D1C002AEED10BE02068C0078C
:103C100008D03046FFF75FFF01F8010B6D1C521E04
:103C2000002AF3D12846F0BD052809D2DFE800F0CC
:103C300003090F151B009948017B41F040010173F6
:103C400070479748017B41F04001017370479548E8
:103C5000017B41F04001017370479348017B41F0C3
:103C60004001017370479148C16841F04001C16053
:103C70007047F0B50024002640F20737052818D217
:103C8000DFE800F003070C101400844C241D3E46AE
:103C90000FE0834C241D40F28F360AE0814C241D36
:103CA0003E4606E0804C241D3E4602E07F4C241D2B
:103CB0003E46072914D2DFE801F00406080A0C0E7C
:103CC000110001250CE002250AE0042508E0082582
:103CD00006E0802504E04FF4807501E04FF40075A4
:103CE000012A04D02068AE4330402060F0BD206837
:103CF000354028432060F0BD052814D2DFE800F0ED
:103D00000306090C0F006548007D70476448007D7C
:103D100070476448007D70476348007D7047634882
:103D20004069C0B270470020704740F2CF3105288B
:103D300018D2DFE800F003070B0F13005748806824
:103D4000084070475648806808407047554880686A
:103D5000084070475448806808407047534880685E
:103D60000840704700207047002105281CD2DFE87A
:103D700000F003080D1217004848007D00F04001D4
:103D800012E04748007D00F040010DE04548007D0D
:103D900000F0400108E04448007D00F0400103E0ED
:103DA0004248406900F04001480601D500207047B4
:103DB000012070470122CB78002B04D0012B06D0C4
:103DC000022B06D0C1224B78012B04D005E0412202
:103DD000F9E78122F7E742F004020B78012B01D1C9
:103DE00042F002028978012901D142F00802052837
:103DF00008D2DFE800F003080D121700274902F08F
:103E0000CF0008727047264902F0CF000872704751
:103E1000244902F0CF0008727047234902F0CF0016
:103E200008727047214902F0CF0088607047002176
:103E30008170C17001210170417070472DE9F0411E
:103E400015460024012D08D10A78012A00D1022448
:103E50004978012901D144F00404102700260128E3
:103E600007D0042824D0FFF70BFC012D34D00662C4
:103E700098E60B48012D01D0066293E6017B41F0E4
:103E80008001017306700671017B21F080010173CE
:103E9000876244F00101016284E6000000C0004036
:103EA000000001400080094000C0094000400A4075
:103EB000A448012D01D0066274E6C16841F080017A
:103EC000C16006604660C16821F08001C160876200
:103ED00044F00101016265E6017B41F0800101735C
:103EE00006700671017B21F08001017380F8287053
:103EF00044F00101016255E610B50C46012807D0D7
:103F000004280AD0FFF7BCFB016A21430162B8E52F
:103F10008D48016A21430162B3E58A48016A214361
:103F20000162AEE5042808D18648012906D000299F
:103F300003D1416A01F03D0141627047416A41F09D
:103F4000020141627047042806D17E48012904D04D
:103F5000416A01F03E0141627047416A41F001014E
:103F60004162704704280AD1C900764A506A20F09D
:103F70003800084340F0040000F03F0050627047F2
:103F8000002301280ED111B1012903D101E0012341
:103F900000E002236C48012A05D0027CF3219943FA
:103FA0000A4002747047017C19430174704701286C
:103FB00012D121B1012904D0022905D103E0102337
:103FC00002E0402300E080235F48012A05D0017C05
:103FD000F3229A43114001747047017C1943017424
:103FE0007047012801D0002070475748007E704775
:103FF0002DE9F04106460D460024012E0FD0042E77
:1040000014D03046FFF73CFB014601F15402131F68
:1040100001F10C004C31EF78012F0ED01BE04A4A21
:104020005432131F48480C30191FF4E7454A5432E4
:10403000131F44480C30191FEDE710246F79012F2E
:1040400000D130242F79012F03D1012E01D144F06A
:104050000804EE7916602A78012A01D144F001049F
:10406000AA78012A03D144F00404AA791A606A7874
:104070000AB944F0020404F03F020A60016841F00A
:10408000380101608EE510B50C4601280BD00428DC
:104090000CD0FFF7F5FA5430012C0AD0016841F03A
:1040A00002010160EDE428485430F5E7254854301A
:1040B000F2E7016821F002010160E2E42DE9F04736
:1040C0000746884691461E46012F1AD0042F1DD060
:1040D0003846FFF7D5FA00F10C0500F11404D6B10B
:1040E0002868C6B226F01000286001234A464146DF
:1040F0003846FFF709FD014620684006FCD52E60D2
:1041000013E0114D0C35104C1434E8E70D4D0C350F
:104110000C4C1434E3E701234A4641463846FFF786
:10412000F3FC014620684006FCD50846BDE8F08750
:1041300013B501231A4601A9FFF7C0FF1CBD0023D8
:10414000BCE7000000400A400000014070B5054691
:104150000E460120FCF714F801460022541E0223EB
:104160000AE0501C5843B1FBF0F4B44204D9521C8D
:10417000FF2A01D900229B1CB442F2D82868C0B2A1
:1041800028602868D1B240EA01202860D8B22861AE
:1041900070BD70B504460D46CE48844204D101215D
:1041A0004805FCF702F80EE0CB48844204D1012117
:1041B0000015FBF7FAFF06E0C848844219D1012137
:1041C0000805FBF7F2FFA88829892A880843298A6D
:1041D0001143084380B22060287B00F00F0060602C
:1041E00020466969FFF7B2FF0020A168401C08283B
:1041F000FBD370BDB749884204D100214FF40010B1
:10420000FBF7D3BFB449884203D100210015FBF767
:10421000CCBFB249884204D100214FF48010FBF793
:10422000C4BF7047006800F00F0070470021416074
:104230008160AB4A426107220260C1600161704740
:10424000012904D0416801F00D01416070474168C7
:1042500041F0020141607047012904D0416801F03A
:104260000E0141607047416841F0010141607047B3
:10427000012904D0416841F008014160704741685C
:1042800001F007014160704781607047806880B22B
:1042900070472DE9F04F0B46054611460020D860C7
:1042A0005860586102E02846FFF7F0FFE8684007D1
:1042B000F9D4032028622846FFF7B4FF072801D964
:1042C000012400E000244FF0FF3B4FF4807A4FF6CA
:1042D000FF7221B101296FD05846BDE8F08F1CB1A3
:1042E0009F68D3F800904EE09E68D3F800804AE0C3
:1042F000D5F80CC05FEA8C7C0ED581420CD21868D0
:1043000090B114B3B9F800102846FFF7BDFF09F1CA
:1043100002095868801C5860A869C1072CD040F475
:10432000007058615846D8E73CB111462846FFF75F
:10433000ABFF5868801C5860EEE7FF212846FFF766
:10434000A3FF5868401C5860E6E798F8001028461C
:10435000FFF79AFF08F101085868401C5860DBE736
:104360002846FFF793FF996811B1D4B127F8020BE3
:10437000D4B1D868801CD860E868400703D5D3E979
:1043800003018842ECD3596818698142B0D3D3F84D
:104390000CC08445ACD3C3F814A0186840B1586869
:1043A0009BE706F8010BE3E7D868401CD860E3E719
:1043B000986810B1D86890E73FE000208DE7186852
:1043C00078B1FCB1415A2846FFF75EFF5868801C5F
:1043D0005860A869C10729D040F400705861584658
:1043E0007BE73CB111462846FFF74EFF5868801C1A
:1043F0005860EEE7FF212846FFF746FF5868401C4B
:104400005860E6E7415C2846FFF73EFF5868401CCD
:104410005860DEE72846FFF739FF996811B1ECB123
:10442000DE688853ECB1D868801CD860E868400723
:1044300003D5D3E903018842ECD3E868800703D5AC
:10444000596818698142BAD3D3E90310814202D373
:104450005968814209D20F20686108E0DE688855FA
:10446000E0E7D868401CD860E0E7C3F814A000205B
:1044700033E7C068084201D0012070470020704730
:10448000012A05D042690F238B431A4042617047CD
:1044900042690A43426170478069084201D00120A5
:1044A00070470020704780697047C069084201D09A
:1044B000012070470020704701627047012A05D033
:1044C000426A03238B431A4042627047426A0A439E
:1044D00042627047008008400000034000C00A406C
:1044E00040420F002830802801DD203000E02830D5
:1044F00000F03F007047202801DA40F04000C0B2D1
:10450000704710B59CB0034600226C4605E0FFF7EB
:10451000E9FF44F82200521C491C585C2C2801D0A9
:104520001C2AF4DB019802990007800840EA015038
:10453000039940EA8130049940EA0120059940EA54
:104540008100069940EA21101CB010BD30B5B1B011
:104550000446002301AD05E0FFF7C4FF45F8230042
:104560005B1C521C885C2C2801D01C2BF4DB0198AE
:104570001D90029800111E90029803990007800870
:1045800040EA0150049940EA8130059940EA01204F
:10459000069940EA8100079940EA21101F90079888
:1045A00008990007000E40EAA10020900898099998
:1045B0008007800D40EA81000A9940EA2110ADF899
:1045C00084000A9800F0080022900A980B9940078E
:1045D000000940EAC1400C9940EA41300D9940EA97
:1045E000C1100E9940EA41000F9940EA61100A217A
:1045F00090FBF1F023900F98109AC006400940EA12
:104600000240119A40EA8220129A40EA0210139A5C
:1046100040EAA20090FBF1F02490139814998007CF
:10462000000D40EA0110159940EAA100ADF8940090
:10463000159816998007C00D40EA4100179940EA85
:104640006110ADF8960017981899C006800E40EAE0
:1046500061102690189800F0180027901898C0F361
:10466000800028901898C0F340002990189800F016
:1046700001002A901998C0F340102B901998C0F3AC
:1046800000102C901998C0F3C0002D901998C0F319
:1046900080002E901998C0F340002F9019991C9813
:1046A00001F0010140EA81401A991B9A090341EA8D
:1046B00082110843309050221DA9204622F0F5FDBA
:1046C00031B030BDF0B5A5B00446002301AD05E022
:1046D000FFF708FF45F823005B1C521C885C2C2860
:1046E00001D01B2BF4DB01981C90029800111D9047
:1046F000029803990007800840EA0150049940EAB3
:104700008130059940EA0120069940EA8100079925
:1047100040EA21101E900798C0F381001F900021ED
:1047200006221CAB002610E015F822008007870E39
:10473000501C55F8200047EAA000FFF7DCFE402897
:104740000ED05F183874491C521C1329ECDB8DF80D
:10475000936024221CA9204622F0A7FD25B0F0BDBD
:1047600058180674F3E730B5A0B0044600236D4630
:1047700005E0FFF7B7FE45F823005B1C521C885C80
:104780002C2801D01C2BF4DB00981C90DDE90610CE
:1047900040EA81108DF87F00019802990007800897
:1047A00040EA0150039940EA8130049940EA01202F
:1047B000059940EA8100069940EA21101D900020E9
:1047C0001CA900F108020B1815F822201A72401CCF
:1047D0000728F6DB1CA80FC80FC420B030BD03F0BB
:1047E000F5BBF0B595B004460E4617461D460020B1
:1047F0002178212903D0242901D015B0F0BD61789A
:1048000041290BD1A178492908D1E178562905D150
:104810002179442902D161794D2903D020794D288D
:1048200049D08DE00622A15C2C2902D1401C05282C
:1048300002D0521C142AF6DB142A3ADA521CA05C6D
:10484000FFF750FE12281ED0132811D01828D4D1FB
:10485000A0188079FFF746FE10F00C0F1ED02146FD
:1048600011A8FFF780FF11A80FC80FC5F120C4E7FA
:10487000214601A8FFF76AFE502201A9304622F026
:1048800014FD1220B9E7214601A8FFF75FFE502270
:1048900001A9304622F009FD1220AEE721460CA8FE
:1048A000FFF710FF24220CA9384622F0FEFCF0206E
:1048B000A3E70020A1E76079432841D1A079E179FD
:1048C00041EA0020217A41EA0020617A41EA002091
:1048D000FE490A2210B190FBF2F08860A07AE37AD8
:1048E00043EA0020237B43EA0020637B43EA002065
:1048F00010B190FBF2F04860A07BE37B43EA00201C
:104900000884207C637C43EA002090FBF2F048841A
:10491000A07CE17C41EA0020217D41EA0020617D0C
:1049200041EA0020EA490860A07DE17D41EA0020DB
:10493000217E41EA0020617E41EA0020E5490860CD
:1049400000205AE7A2B0E44D21AA002128690AF00C
:104950001DFE6B4604AA0DA9FFF743FF0446DE4A7D
:104960000021D21CA8680AF0A0FB122C04D0F02C65
:1049700006D0F12C0BD107E00DA800F0F6FE06E002
:1049800004A800F099FF02E0684601F03FF8A8682B
:104990000AF08DFC14200BF04DFBD5E7F0B54FF677
:1049A000FF76324641F2210411E001230578170415
:1049B00003D506EA4202624001E006EA42021D42D5
:1049C00000D062405B061B0E002BF0D1401C0B0098
:1049D000A1F10101C9B2E8D1D04380B2F0BD00B568
:1049E00085B01421684622F087FC24208DF8000051
:1049F0005A208DF8010010216846FFF7CFFF010A09
:104A00008DF810108DF81100012312226946022042
:104A1000FFF77AF805B000BD70B5AF4801780029FE
:104A200074D0002606704178491C4170AB4D05F1E9
:104A300028046878C00717D0D5E90112012001F0D9
:104A4000D1FA0121084601F04CFC2168E869814255
:104A500013D06168814210D0A16881420DD02060DE
:104A6000042101F068F808E00021012001F039FC80
:104A70002068002801DD01F035F86878400717D577
:104A8000002102202A6901F0ADFA0121022001F083
:104A900028FC2168286A814211D0616881420ED0C9
:104AA000A16881420BD06060042101F044F806E067
:104AB0000021022001F015FC606801F013F868780D
:104AC000C00617D5D5E90512032001F08BFA0121A4
:104AD000032001F006FC2168686A814211D06168F8
:104AE00081420ED0A16881420BD0A060042101F068
:104AF00022F806E00021032001F0F3FBA06800F09B
:104B0000F1FF2E70BDE8704001F086BB70BD724CA5
:104B10000125714A0021D21CA0680AF0C6FAFFF7ED
:104B20007BFF00F09BFF02F0A5F8A0680AF0BFFB36
:104B3000A570FFF754FF00230522194618460BF015
:104B4000A0FAE6E78AB000244FF0010A01F0BAFEAD
:104B5000634F97F8340001F0E6FE0E2001F0FAFEF4
:104B600001F0BCFE4FF025094FF01D0802AD02F028
:104B700050F820B15B480068012805D0C4E211203C
:104B80002855641CE4B2BFE201F0CCFC0646002EBE
:104B90007ED0316891F82C0002097AD000F0F00044
:104BA00040281BD006DC102809D020280CD0302843
:104BB00022D10EE0502816D060281DD118E0172011
:104BC0002855641CE4B217E018202855641CE4B290
:104BD00012E019202855641CE4B20DE01A20285573
:104BE000641CE4B208E01B202855641CE4B203E016
:104BF0001C202855641CE4B2084603F042F8B0F5C6
:104C0000B47F2BD24FF47A714843694603F0B7F86A
:104C100005F80490641CE0B29DF8001011B129540D
:104C2000401CC0B29DF8011011B12954401CC0B203
:104C30009DF8021011B12954401CC0B29DF8031018
:104C400011B12954401CC0B29DF8041011B129546F
:104C5000401CC0B226212954401CC4B230682249ED
:104C6000806A88428ADAF96B012979D000EB8001E9
:104C700001EB40114FF4FA6091FBF0F064214843DE
:104C8000694603F07CF812202855641CE0B201E06C
:104C9000EFE06FE09DF8001011B12954401CC0B244
:104CA0009DF8011011B12954401CC0B29DF80210AA
:104CB00011B12954401CC0B29DF8031011B1295400
:104CC000401CC0B29DF8041099B10FE00000C0A1D3
:104CD000800100108401001004010010D85500105C
:104CE0002C010010280100109F8601002954401C4F
:104CF000C0B2F96B012938D01E212954401CC0B222
:104D000016212954401CC4B230686421B0F9200037
:104D10004843694603F033F89DF8000010B1285568
:104D2000641CE4B29DF8010010B12855641CE4B283
:104D30009DF8020010B12855641CE4B29DF80300F0
:104D400010B12855641CE4B29DF8040010B1285538
:104D5000641CE4B205F80480641CE4B2D4E1FFE70B
:104D6000642190FBF1F048438AE713212954401C49
:104D7000C0B2C5E715202855641CE4B2084602F00D
:104D800080FFB0F5B47F2BD24FF47A714843694667
:104D900002F0F5FF05F80490641CE0B29DF80010E5
:104DA00011B12954401CC0B29DF8011011B1295411
:104DB000401CC0B29DF8021011B12954401CC0B271
:104DC0009DF8031011B12954401CC0B29DF8041085
:104DD00011B12954401CC0B226212954401CC4B230
:104DE00012202855641CE4B2F86B012834D03068D6
:104DF000806A00EB800101EB40114FF4FA6091FBF7
:104E0000F0F064214843694602F0B9FF9DF80000C4
:104E100010B12855641CE4B29DF8010010B128556A
:104E2000641CE4B29DF8020010B12855641CE4B281
:104E30009DF8030010B12855641CE4B29DF80400ED
:104E400010B12855641CE4B2F86B01280CD01E2068
:104E50002855641CE4B257E13068816A642091FBF4
:104E6000F0F064214843CEE713202855641CE4B2D7
:104E70004AE1BAF1010F03D0BAF1020F7ED043E14B
:104E800001F011FF0646EEB30F202855641CE4B272
:104E900001F082FA716B884204DA23202855641CE1
:104EA000E4B203E024202855641CE4B2304602F04A
:104EB000E8FEB0F5B47F2DD24FF47A7148436946CD
:104EC00002F05DFF05F80490641CE1B29DF800005B
:104ED00010B16854491CC9B29DF8010010B1685462
:104EE000491CC9B29DF8020010B16854491CC9B2EE
:104EF0009DF8030010B16854491CC9B29DF8040024
:104F000020B100E042E06854491CC9B22620685430
:104F1000491CCCB212202855641CE4B2F86B01285D
:104F20003DD0B06A00EB800101EB40114FF4FA6014
:104F300091FBF0F064214843694602F020FF9DF8A0
:104F4000000010B12855641CE4B29DF8010010B1B6
:104F50002855641CE4B29DF8020010B12855641C69
:104F6000E4B29DF8030010B12855641CE4B29DF82A
:104F7000040010B12855641CE4B200E01BE0F86B9B
:104F8000012813D01E202855641CE4B24FF0020AF9
:104F900000230222194618460BF073F8B4E0B16AF8
:104FA000642091FBF0F064214843C5E713202855A5
:104FB000641CE4B2EAE7A3480068082808D0A248C5
:104FC0000068082831D0A1480068082864D099E01A
:104FD000B86964214843694602F0D1FE1020285583
:104FE000641CE0B29DF8001011B12954401CC0B2FD
:104FF0009DF8011011B12954401CC0B29DF8021057
:1050000011B12954401CC0B29DF8031011B12954AC
:10501000401CC0B29DF8041011B12954401CC0B20C
:1050200005F80080401CC4B26CE089486421B0F9E6
:1050300020004843694602F0A2FE1F202855641C48
:10504000E0B29DF8001011B12954401CC0B29DF887
:10505000011011B12954401CC0B29DF8021011B1C9
:105060002954401CC0B29DF8031011B12954401CB2
:10507000C0B29DF8041011B12954401CC0B205F80B
:105080000080401CC0B220212954401CC0B2222103
:105090002954401CC4B235E06D486421B0F92000A9
:1050A0004843694602F06BFE1F202855641CE0B29D
:1050B0009DF8001011B12954401CC0B29DF8011098
:1050C00011B12954401CC0B29DF8021011B12954ED
:1050D000401CC0B29DF8031011B12954401CC0B24D
:1050E0009DF8041011B12954401CC0B205F800808D
:1050F000401CC0B221212954401CC0B22221295495
:10510000401CC4B24FF0010AF4B14FF0000B01F0A3
:10511000D9FB14E0002615F80B0001F01BFC08E099
:105120000F2E0ADC761C0022C823114610460AF016
:10513000A8FF01F018FC0028F2D10BF1010BA345E8
:10514000E8DB01F0CBFB00240023032219461846BC
:105150000AF097FF0BE570B586B03D483D49816088
:105160003D4941600024848400F0F0FDFCF79EF886
:1051700002F07AFB01F018FF02F0F2FA01F0B3FB43
:1051800008F0F9FFFBF761F83449062009F09CFEAE
:10519000324DED1EA860291D062009F095FEE8603D
:1051A00014212F480AF035F928612D4805AB6422F7
:1051B0001421503009F07CFD686102AA03254FF4E8
:1051C000006031C20C2027490191274A0346002183
:1051D0000090AFF6F5100AF081FC02AA4FF480703F
:1051E00031C221490820091D019101F57F72034652
:1051F00000210090AFF6B3000AF070FC1B48802637
:1052000001900920CDE90264194A04950346002162
:105210000090AFF205700AF061FC1548104A001DBD
:1052200001900B20CDE90264383A04950346002131
:105230000090AFF2EF600AF051FC09F01CF806B0E4
:1052400070BD0000740100107C0100107801001096
:105250000000C0A161681D0057C66C000701001066
:105260000C560010D82D0010D44D0010D85100104D
:10527000D45300102DE9FF5F04460D4616461F4625
:10528000204622F0DBFADFF828840022434622F091
:1052900041FA22F043FB0390304622F0CFFA00227D
:1052A000434622F037FA22F039FB0290A5EB0709BA
:1052B000484622F0C3FA0022434622F02BFA22F09D
:1052C0002DFB80462CB125B1A01BB44205DD014663
:1052D00004E004B0F748BDE8F09F311B41F288328A
:1052E000914214DABD4201DD494600E0791B91424A
:1052F0000DDA404309FB090022F0A0FA23F04EFF2B
:1053000022F00CFB04B0BDE8F05F22F0A8BA4046E2
:10531000039922F05EF80646029922F05AF822F02C
:10532000EAFAE54AE54B22F083F90022E44B22F049
:10533000F1F923F0B9FD6FF001094A4622F059FA5C
:1053400004460D463046029921F0F1FF22F0D3FACF
:10535000D94ADA4B22F06CF90022D94B22F0DAF963
:1053600023F0A2FD4A4622F044FA06460F46404684
:10537000039921F0DCFF8046029922F02AF822F0FE
:10538000BAFACD4ACD4B22F053F90022CC4B22F091
:10539000C1F923F089FD4A4622F02BFACDE900013C
:1053A0004046029921F0C3FF22F0A5FAC24AC34B3E
:1053B00022F03EF90022C24B22F0ACF923F074FD3A
:1053C0004A4622F016FA82468B46DDE9021021F0A9
:1053D000AEFF22F090FAB84AB84B22F029F9002229
:1053E000B74B22F097F923F05FFD4FF0FF3222F028
:1053F00000FA80468946DDE9021021F0EAFF22F03A
:105400007AFAAD4AAD4B22F013F90022AC4B22F0F0
:1054100081F923F049FD4FF0FF3222F0EAF94246CC
:105420004B4622F0FFF852465B4622F05AF8DDE97F
:10543000002322F056F832463B4622F052F822462C
:105440002B4622F04EF823F0ABF99E4A9E4B22F0F9
:10545000EFF822F063FA9D4921F0C1FF04B0BDE8E6
:10546000F05F22F0FCB9002099494FF4FA7300EB89
:10547000C00251F8322022B1401C9842F7DB0020D4
:10548000704700EBC00001EBC0008A4A826270479F
:105490002DE9F0410546FFF7E6FF04464FF0FF38DF
:1054A00074B3A8682060288A2084288C6084688C63
:1054B000A084A8696060E869A0608648D0E90132EC
:1054C000D5E90610FFF7D6FE0646A6623C20E0842A
:1054D0008149206800270A68904205D04A689042B6
:1054E00002D0896888420ED194F82C1041F0040152
:1054F00084F82C10E763014678A022F0B9FB15E090
:105500004046BDE8F08194F82C1079B9B5F9101037
:1055100078290BDB01F041F840F0020084F82C0000
:10552000204600F092FF204602F020FB714A1068EE
:1055300038B1816AB1421EDB6064046414600120EA
:10554000DFE7146054600120DBE75168884205D131
:1055500044642064676454600320D2E7416C8B6A22
:10556000B34207DB416C61642064416C0C644464A9
:105570000220C6E708460028E7D14046C1E72DE9EA
:10558000F04104460E46A76A308A2084308C60843D
:10559000708CA084B0696060F069A0604D48D0E96B
:1055A0000132D6E90610FFF765FE0546A5623C20EC
:1055B000E08494F82C0080B9B6F9100078280CDB50
:1055C000206800F0EAFF40F0020084F82C0020463A
:1055D00000F03BFF204602F0C9FA2046AF4201D15D
:1055E00001208EE7434A4FF0000C4FF0FF36BD42DA
:1055F00040DA216C21B18B6AAB4203DC012080E7E9
:1056000001207EE713682BE0006C984211D1636C97
:105610004B6451688C4203D0D4E91013196401E043
:10562000216C516004646064C4F840C014600120BF
:1056300067E7076CBF6AAF4212DC636C4B6451686A
:105640008C4203D0D4E91012116401E0216C516046
:10565000016C21646064016C4C640464012050E7B7
:105660000028D1D14FF4907223A12CA022F000FB8E
:10567000304646E7616C21B18B6AAB4271DB012099
:105680003FE701203DE7406C5368984252D11368D0
:105690009C4202D0236C596400E01160D4E91013DD
:1056A000196444642064C4F844C05460012028E7AD
:1056B000004CED403F420F001F85EB51B81E0940E2
:1056C0000080664048E17A14AEE0AA4000007A44C7
:1056D0000000D0A10000C0A10056001066696E64F1
:1056E00020706C756720626F61743A2530396C6484
:1056F0000A000000200100102E2E5C2E2E5C426F4E
:10570000617264537570706F72745C6C6973745FEE
:105710006F665F626F6174732E63000046494C458B
:105720003A25732C4C494E453A25642C457272211A
:105730000D0A0000436C9B6AAB4212DB13689C426B
:1057400002D0226C516400E01160D4E9101211649F
:105750002064416C6164416C0C6444640120D0E6B7
:10576000FFE700288FD13046CBE62DE9F04100223B
:10577000816900290CD0FC4B994209DCFB4CC369C0
:10578000A34205D0551EFA4C4FF4FA7C866801E01E
:105790000020B6E602EBC20754F83770B74224D1B6
:1057A00002EBC20204EBC2025468A14203DD091BF2
:1057B00002290DDC02E0611A022909DC91688B42A2
:1057C00003DD591A022903DC0BE0C91A022908DD9E
:1057D00001461046FFF7D3FE08B1012091E62846A6
:1057E0008FE63C20D08400208BE6521C6245D1DB42
:1057F000FFF74EFE08B1012083E6284681E62DE939
:10580000F04106460025FFF72EFE044694B3B1682A
:1058100021603C20E084D74800270268914205D0EF
:105820004268914202D0806881420AD194F82C00EB
:1058300040F0040084F82C00E763AFF2601022F01F
:1058400017FA70196219017C1173007C10B16D1C7C
:10585000142DF6DBE777142104F10C0001F02FF989
:10586000C549086850B148684464206467644C6066
:10587000012046E6FFE74FF0FF3042E60C604C6047
:1058800001203EE670B500223C23C384037B002B3D
:1058900001D0002070BD8B1885181C7C2C731B7CDC
:1058A00013B1521C142AF6DB0021C17714210C30ED
:1058B00001F005F9012070BD70B5014600208B682C
:1058C000002B12D0AA4A441E4FF4FA7600EBC00512
:1058D00052F835509D420CD100EBC00002EBC000E5
:1058E000FFF7D0FF18B1012070BD002070BD204629
:1058F00070BD401CB042E9DB0846FFF780FF08B1ED
:10590000012070BD204670BD70B50546FFF7ABFDA8
:105910000446E4B1686820603C21E18495490A6846
:10592000904205D04A68904202D0896888420AD1E4
:1059300094F82C0040F0040084F82C00AFF26420AE
:10594000696822F095F9287A082803D008E04FF01A
:10595000FF3070BD687A132802D1A87A042803D0DA
:10596000E87B372807D014E094F82C0040F00100C1
:1059700084F82C000DE0686800F00FFE48B140F09C
:10598000020084F82C00204600F05FFD204602F063
:10599000EDF87949086838B148684464206400200B
:1059A00060644C60012070BD0C604C60012070BDD3
:1059B00010B504463C20E084087A082805D1487ACE
:1059C000132802D1887A042803D0C87B372807D04F
:1059D0000AE014F82C0F40F001002070002010BDE8
:1059E00094F82C00000901D0012010BD486800F097
:1059F000D4FD48B140F0020084F82C00204600F0AD
:105A000024FD204602F0B2F8012010BD70B5014619
:105A100000204B68002B12D0554A441E4FF4FA76F2
:105A200000EBC00552F835509D420CD100EBC00090
:105A300002EBC000FFF7BCFF18B1012070BD0020D1
:105A400070BD204670BD401CB042E9DB0846FFF740
:105A50005BFF08B1012070BD204670BD2DE9F0410B
:105A60000025454E3468002737E0B4F926000028A9
:105A70000FDD4248A16800EB0510416061680160DC
:105A8000A16A8160C460E08C401EE084646C6D1C7F
:105A900023E094F82C0000F00F00022802D12046E9
:105AA00000F00CFD3068844204D1606C306068B155
:105AB00007640BE0606C28B1216C4864D4E91001E4
:105AC000086403E0206C4764206C7060D4F8448064
:105AD0004821204621F010FC4446002CC5D128481E
